{
  "_format": "hh-sol-artifact-1",
  "contractName": "MyEpicNFT",
  "sourceName": "contracts/MyEpicNFT.sol",
  "abi": [
    {
      "inputs": [],
      "stateMutability": "nonpayable",
      "type": "constructor"
    },
    {
      "anonymous": false,
      "inputs": [
        {
          "indexed": true,
          "internalType": "address",
          "name": "owner",
          "type": "address"
        },
        {
          "indexed": true,
          "internalType": "address",
          "name": "approved",
          "type": "address"
        },
        {
          "indexed": true,
          "internalType": "uint256",
          "name": "tokenId",
          "type": "uint256"
        }
      ],
      "name": "Approval",
      "type": "event"
    },
    {
      "anonymous": false,
      "inputs": [
        {
          "indexed": true,
          "internalType": "address",
          "name": "owner",
          "type": "address"
        },
        {
          "indexed": true,
          "internalType": "address",
          "name": "operator",
          "type": "address"
        },
        {
          "indexed": false,
          "internalType": "bool",
          "name": "approved",
          "type": "bool"
        }
      ],
      "name": "ApprovalForAll",
      "type": "event"
    },
    {
      "anonymous": false,
      "inputs": [
        {
          "indexed": false,
          "internalType": "address",
          "name": "sender",
          "type": "address"
        },
        {
          "indexed": false,
          "internalType": "uint256",
          "name": "tokenId",
          "type": "uint256"
        }
      ],
      "name": "NewEpicNFTMinted",
      "type": "event"
    },
    {
      "anonymous": false,
      "inputs": [
        {
          "indexed": true,
          "internalType": "address",
          "name": "from",
          "type": "address"
        },
        {
          "indexed": true,
          "internalType": "address",
          "name": "to",
          "type": "address"
        },
        {
          "indexed": true,
          "internalType": "uint256",
          "name": "tokenId",
          "type": "uint256"
        }
      ],
      "name": "Transfer",
      "type": "event"
    },
    {
      "inputs": [
        {
          "internalType": "address",
          "name": "to",
          "type": "address"
        },
        {
          "internalType": "uint256",
          "name": "tokenId",
          "type": "uint256"
        }
      ],
      "name": "approve",
      "outputs": [],
      "stateMutability": "nonpayable",
      "type": "function"
    },
    {
      "inputs": [
        {
          "internalType": "address",
          "name": "owner",
          "type": "address"
        }
      ],
      "name": "balanceOf",
      "outputs": [
        {
          "internalType": "uint256",
          "name": "",
          "type": "uint256"
        }
      ],
      "stateMutability": "view",
      "type": "function"
    },
    {
      "inputs": [
        {
          "internalType": "uint256",
          "name": "tokenId",
          "type": "uint256"
        }
      ],
      "name": "getApproved",
      "outputs": [
        {
          "internalType": "address",
          "name": "",
          "type": "address"
        }
      ],
      "stateMutability": "view",
      "type": "function"
    },
    {
      "inputs": [],
      "name": "getTotalNFTsMinted",
      "outputs": [
        {
          "internalType": "string",
          "name": "",
          "type": "string"
        }
      ],
      "stateMutability": "view",
      "type": "function"
    },
    {
      "inputs": [
        {
          "internalType": "address",
          "name": "owner",
          "type": "address"
        },
        {
          "internalType": "address",
          "name": "operator",
          "type": "address"
        }
      ],
      "name": "isApprovedForAll",
      "outputs": [
        {
          "internalType": "bool",
          "name": "",
          "type": "bool"
        }
      ],
      "stateMutability": "view",
      "type": "function"
    },
    {
      "inputs": [],
      "name": "makeAnEpicNFT",
      "outputs": [],
      "stateMutability": "nonpayable",
      "type": "function"
    },
    {
      "inputs": [],
      "name": "name",
      "outputs": [
        {
          "internalType": "string",
          "name": "",
          "type": "string"
        }
      ],
      "stateMutability": "view",
      "type": "function"
    },
    {
      "inputs": [
        {
          "internalType": "uint256",
          "name": "tokenId",
          "type": "uint256"
        }
      ],
      "name": "ownerOf",
      "outputs": [
        {
          "internalType": "address",
          "name": "",
          "type": "address"
        }
      ],
      "stateMutability": "view",
      "type": "function"
    },
    {
      "inputs": [
        {
          "internalType": "uint256",
          "name": "tokenId",
          "type": "uint256"
        }
      ],
      "name": "pickRandomFirstWord",
      "outputs": [
        {
          "internalType": "string",
          "name": "",
          "type": "string"
        }
      ],
      "stateMutability": "view",
      "type": "function"
    },
    {
      "inputs": [
        {
          "internalType": "uint256",
          "name": "tokenId",
          "type": "uint256"
        }
      ],
      "name": "pickRandomSecondWord",
      "outputs": [
        {
          "internalType": "string",
          "name": "",
          "type": "string"
        }
      ],
      "stateMutability": "view",
      "type": "function"
    },
    {
      "inputs": [
        {
          "internalType": "uint256",
          "name": "tokenId",
          "type": "uint256"
        }
      ],
      "name": "pickRandomThirdWord",
      "outputs": [
        {
          "internalType": "string",
          "name": "",
          "type": "string"
        }
      ],
      "stateMutability": "view",
      "type": "function"
    },
    {
      "inputs": [
        {
          "internalType": "address",
          "name": "from",
          "type": "address"
        },
        {
          "internalType": "address",
          "name": "to",
          "type": "address"
        },
        {
          "internalType": "uint256",
          "name": "tokenId",
          "type": "uint256"
        }
      ],
      "name": "safeTransferFrom",
      "outputs": [],
      "stateMutability": "nonpayable",
      "type": "function"
    },
    {
      "inputs": [
        {
          "internalType": "address",
          "name": "from",
          "type": "address"
        },
        {
          "internalType": "address",
          "name": "to",
          "type": "address"
        },
        {
          "internalType": "uint256",
          "name": "tokenId",
          "type": "uint256"
        },
        {
          "internalType": "bytes",
          "name": "data",
          "type": "bytes"
        }
      ],
      "name": "safeTransferFrom",
      "outputs": [],
      "stateMutability": "nonpayable",
      "type": "function"
    },
    {
      "inputs": [
        {
          "internalType": "address",
          "name": "operator",
          "type": "address"
        },
        {
          "internalType": "bool",
          "name": "approved",
          "type": "bool"
        }
      ],
      "name": "setApprovalForAll",
      "outputs": [],
      "stateMutability": "nonpayable",
      "type": "function"
    },
    {
      "inputs": [
        {
          "internalType": "bytes4",
          "name": "interfaceId",
          "type": "bytes4"
        }
      ],
      "name": "supportsInterface",
      "outputs": [
        {
          "internalType": "bool",
          "name": "",
          "type": "bool"
        }
      ],
      "stateMutability": "view",
      "type": "function"
    },
    {
      "inputs": [],
      "name": "symbol",
      "outputs": [
        {
          "internalType": "string",
          "name": "",
          "type": "string"
        }
      ],
      "stateMutability": "view",
      "type": "function"
    },
    {
      "inputs": [
        {
          "internalType": "uint256",
          "name": "tokenId",
          "type": "uint256"
        }
      ],
      "name": "tokenURI",
      "outputs": [
        {
          "internalType": "string",
          "name": "",
          "type": "string"
        }
      ],
      "stateMutability": "view",
      "type": "function"
    },
    {
      "inputs": [
        {
          "internalType": "address",
          "name": "from",
          "type": "address"
        },
        {
          "internalType": "address",
          "name": "to",
          "type": "address"
        },
        {
          "internalType": "uint256",
          "name": "tokenId",
          "type": "uint256"
        }
      ],
      "name": "transferFrom",
      "outputs": [],
      "stateMutability": "nonpayable",
      "type": "function"
    }
  ],
  "bytecode": "0x608060405260405180610160016040528061012f81526020016200435261012f913960099081620000319190620009d0565b506040518060c001604052806040518060400160405280600781526020017f417765736f6d650000000000000000000000000000000000000000000000000081525081526020016040518060400160405280600781526020017f4e6175676874790000000000000000000000000000000000000000000000000081525081526020016040518060400160405280600581526020017f576569726400000000000000000000000000000000000000000000000000000081525081526020016040518060400160405280600981526020017f4f626e6f78696f7573000000000000000000000000000000000000000000000081525081526020016040518060400160405280600781526020017f457863697465640000000000000000000000000000000000000000000000000081525081526020016040518060400160405280600681526020017f52616e646f6d0000000000000000000000000000000000000000000000000000815250815250600a906006620001af92919062000669565b506040518060c001604052806040518060400160405280600581526020017f526964657200000000000000000000000000000000000000000000000000000081525081526020016040518060400160405280600481526020017f476f61740000000000000000000000000000000000000000000000000000000081525081526020016040518060400160405280600581526020017f546967657200000000000000000000000000000000000000000000000000000081525081526020016040518060400160405280600481526020017f4c696f6e0000000000000000000000000000000000000000000000000000000081525081526020016040518060400160405280600581526020017f48756d616e00000000000000000000000000000000000000000000000000000081525081526020016040518060400160405280600581526020017f416e696d65000000000000000000000000000000000000000000000000000000815250815250600b9060066200032d92919062000669565b506040518060c001604052806040518060400160405280600581526020017f4e696e6a6100000000000000000000000000000000000000000000000000000081525081526020016040518060400160405280600781526020017f57617272696f720000000000000000000000000000000000000000000000000081525081526020016040518060400160405280600681526020017f416e696d616c000000000000000000000000000000000000000000000000000081525081526020016040518060400160405280600781526020017f53616d757261690000000000000000000000000000000000000000000000000081525081526020016040518060400160405280600681526020017f4b696c6c6572000000000000000000000000000000000000000000000000000081525081526020016040518060400160405280600881526020017f5368726564646572000000000000000000000000000000000000000000000000815250815250600c906006620004ab92919062000669565b50348015620004b957600080fd5b506040518060400160405280600981526020017f5371756172654e465400000000000000000000000000000000000000000000008152506040518060400160405280600681526020017f53515541524500000000000000000000000000000000000000000000000000008152508160009081620005379190620009d0565b508060019081620005499190620009d0565b505050620005976040518060400160405280601e81526020017f54686973206973206d79204e465420636f6e74726163742e20576f61682100008152506200059d60201b6200102f1760201c565b62000b6a565b6200063d81604051602401620005b4919062000b46565b6040516020818303038152906040527f41304fac000000000000000000000000000000000000000000000000000000007bffffffffffffffffffffffffffffffffffffffffffffffffffffffff19166020820180517bffffffffffffffffffffffffffffffffffffffffffffffffffffffff83818316178352505050506200064060201b60201c565b50565b60008151905060006a636f6e736f6c652e6c6f679050602083016000808483855afa5050505050565b828054828255906000526020600020908101928215620006b6579160200282015b82811115620006b5578251829081620006a49190620009d0565b50916020019190600101906200068a565b5b509050620006c59190620006c9565b5090565b5b80821115620006ed5760008181620006e39190620006f1565b50600101620006ca565b5090565b508054620006ff90620007bf565b6000825580601f1062000713575062000734565b601f01602090049060005260206000209081019062000733919062000737565b5b50565b5b808211156200075257600081600090555060010162000738565b5090565b600081519050919050565b7f4e487b7100000000000000000000000000000000000000000000000000000000600052604160045260246000fd5b7f4e487b7100000000000000000000000000000000000000000000000000000000600052602260045260246000fd5b60006002820490506001821680620007d857607f821691505b602082108103620007ee57620007ed62000790565b5b50919050565b60008190508160005260206000209050919050565b60006020601f8301049050919050565b600082821b905092915050565b600060088302620008587fffffffffffffffffffffffffffffffffffffffffffffffffffffffffffffffff8262000819565b62000864868362000819565b95508019841693508086168417925050509392505050565b6000819050919050565b6000819050919050565b6000620008b1620008ab620008a5846200087c565b62000886565b6200087c565b9050919050565b6000819050919050565b620008cd8362000890565b620008e5620008dc82620008b8565b84845462000826565b825550505050565b600090565b620008fc620008ed565b62000909818484620008c2565b505050565b5b81811015620009315762000925600082620008f2565b6001810190506200090f565b5050565b601f82111562000980576200094a81620007f4565b620009558462000809565b8101602085101562000965578190505b6200097d620009748562000809565b8301826200090e565b50505b505050565b600082821c905092915050565b6000620009a56000198460080262000985565b1980831691505092915050565b6000620009c0838362000992565b9150826002028217905092915050565b620009db8262000756565b67ffffffffffffffff811115620009f757620009f662000761565b5b62000a038254620007bf565b62000a1082828562000935565b600060209050601f83116001811462000a48576000841562000a33578287015190505b62000a3f8582620009b2565b86555062000aaf565b601f19841662000a5886620007f4565b60005b8281101562000a825784890151825560018201915060208501945060208101905062000a5b565b8683101562000aa2578489015162000a9e601f89168262000992565b8355505b6001600288020188555050505b505050505050565b600082825260208201905092915050565b60005b8381101562000ae857808201518184015260208101905062000acb565b60008484015250505050565b6000601f19601f8301169050919050565b600062000b128262000756565b62000b1e818562000ab7565b935062000b3081856020860162000ac8565b62000b3b8162000af4565b840191505092915050565b6000602082019050818103600083015262000b62818462000b05565b905092915050565b6137d88062000b7a6000396000f3fe608060405234801561001057600080fd5b50600436106101165760003560e01c806395d89b41116100a2578063b88d4fde11610071578063b88d4fde14610305578063c575757a14610321578063c87b56dd14610351578063de9d132f14610381578063e985e9c51461038b57610116565b806395d89b411461027d578063a22cb4651461029b578063b187301f146102b7578063b4c3b8be146102e757610116565b806323b872dd116100e957806323b872dd146101b55780632de38d68146101d157806342842e0e146102015780636352211e1461021d57806370a082311461024d57610116565b806301ffc9a71461011b57806306fdde031461014b578063081812fc14610169578063095ea7b314610199575b600080fd5b610135600480360381019061013091906120ad565b6103bb565b60405161014291906120f5565b60405180910390f35b61015361049d565b60405161016091906121a0565b60405180910390f35b610183600480360381019061017e91906121f8565b61052f565b6040516101909190612266565b60405180910390f35b6101b360048036038101906101ae91906122ad565b610575565b005b6101cf60048036038101906101ca91906122ed565b61068c565b005b6101eb60048036038101906101e691906121f8565b6106ec565b6040516101f891906121a0565b60405180910390f35b61021b600480360381019061021691906122ed565b6107e4565b005b610237600480360381019061023291906121f8565b610804565b6040516102449190612266565b60405180910390f35b61026760048036038101906102629190612340565b6108b5565b604051610274919061237c565b60405180910390f35b61028561096c565b60405161029291906121a0565b60405180910390f35b6102b560048036038101906102b091906123c3565b6109fe565b005b6102d160048036038101906102cc91906121f8565b610a14565b6040516102de91906121a0565b60405180910390f35b6102ef610b0c565b6040516102fc91906121a0565b60405180910390f35b61031f600480360381019061031a9190612538565b610b1e565b005b61033b600480360381019061033691906121f8565b610b80565b60405161034891906121a0565b60405180910390f35b61036b600480360381019061036691906121f8565b610c78565b60405161037891906121a0565b60405180910390f35b610389610d8a565b005b6103a560048036038101906103a091906125bb565b610f9b565b6040516103b291906120f5565b60405180910390f35b60007f80ac58cd000000000000000000000000000000000000000000000000000000007bffffffffffffffffffffffffffffffffffffffffffffffffffffffff1916827bffffffffffffffffffffffffffffffffffffffffffffffffffffffff1916148061048657507f5b5e139f000000000000000000000000000000000000000000000000000000007bffffffffffffffffffffffffffffffffffffffffffffffffffffffff1916827bffffffffffffffffffffffffffffffffffffffffffffffffffffffff1916145b806104965750610495826110c8565b5b9050919050565b6060600080546104ac9061262a565b80601f01602080910402602001604051908101604052809291908181526020018280546104d89061262a565b80156105255780601f106104fa57610100808354040283529160200191610525565b820191906000526020600020905b81548152906001019060200180831161050857829003601f168201915b5050505050905090565b600061053a82611132565b6004600083815260200190815260200160002060009054906101000a900473ffffffffffffffffffffffffffffffffffffffff169050919050565b600061058082610804565b90508073ffffffffffffffffffffffffffffffffffffffff168373ffffffffffffffffffffffffffffffffffffffff16036105f0576040517f08c379a00000000000000000000000000000000000000000000000000000000081526004016105e7906126cd565b60405180910390fd5b8073ffffffffffffffffffffffffffffffffffffffff1661060f61117d565b73ffffffffffffffffffffffffffffffffffffffff16148061063e575061063d8161063861117d565b610f9b565b5b61067d576040517f08c379a00000000000000000000000000000000000000000000000000000000081526004016106749061275f565b60405180910390fd5b6106878383611185565b505050565b61069d61069761117d565b8261123e565b6106dc576040517f08c379a00000000000000000000000000000000000000000000000000000000081526004016106d3906127f1565b60405180910390fd5b6106e78383836112d3565b505050565b606060006107206106fc84611539565b60405160200161070c9190612899565b604051602081830303815290604052611699565b9050600a805490508161073391906128ea565b9050600a81815481106107495761074861291b565b5b90600052602060002001805461075e9061262a565b80601f016020809104026020016040519081016040528092919081815260200182805461078a9061262a565b80156107d75780601f106107ac576101008083540402835291602001916107d7565b820191906000526020600020905b8154815290600101906020018083116107ba57829003601f168201915b5050505050915050919050565b6107ff83838360405180602001604052806000815250610b1e565b505050565b6000806002600084815260200190815260200160002060009054906101000a900473ffffffffffffffffffffffffffffffffffffffff169050600073ffffffffffffffffffffffffffffffffffffffff168173ffffffffffffffffffffffffffffffffffffffff16036108ac576040517f08c379a00000000000000000000000000000000000000000000000000000000081526004016108a390612996565b60405180910390fd5b80915050919050565b60008073ffffffffffffffffffffffffffffffffffffffff168273ffffffffffffffffffffffffffffffffffffffff1603610925576040517f08c379a000000000000000000000000000000000000000000000000000000000815260040161091c90612a28565b60405180910390fd5b600360008373ffffffffffffffffffffffffffffffffffffffff1673ffffffffffffffffffffffffffffffffffffffff168152602001908152602001600020549050919050565b60606001805461097b9061262a565b80601f01602080910402602001604051908101604052809291908181526020018280546109a79061262a565b80156109f45780601f106109c9576101008083540402835291602001916109f4565b820191906000526020600020905b8154815290600101906020018083116109d757829003601f168201915b5050505050905090565b610a10610a0961117d565b83836116cc565b5050565b60606000610a48610a2484611539565b604051602001610a349190612a94565b604051602081830303815290604052611699565b9050600b8054905081610a5b91906128ea565b9050600b8181548110610a7157610a7061291b565b5b906000526020600020018054610a869061262a565b80601f0160208091040260200160405190810160405280929190818152602001828054610ab29061262a565b8015610aff5780601f10610ad457610100808354040283529160200191610aff565b820191906000526020600020905b815481529060010190602001808311610ae257829003601f168201915b5050505050915050919050565b6060610b19600854611539565b905090565b610b2f610b2961117d565b8361123e565b610b6e576040517f08c379a0000000000000000000000000000000000000000000000000000000008152600401610b65906127f1565b60405180910390fd5b610b7a84848484611838565b50505050565b60606000610bb4610b9084611539565b604051602001610ba09190612b02565b604051602081830303815290604052611699565b9050600c8054905081610bc791906128ea565b9050600c8181548110610bdd57610bdc61291b565b5b906000526020600020018054610bf29061262a565b80601f0160208091040260200160405190810160405280929190818152602001828054610c1e9061262a565b8015610c6b5780601f10610c4057610100808354040283529160200191610c6b565b820191906000526020600020905b815481529060010190602001808311610c4e57829003601f168201915b5050505050915050919050565b6060610c8382611132565b6000600660008481526020019081526020016000208054610ca39061262a565b80601f0160208091040260200160405190810160405280929190818152602001828054610ccf9061262a565b8015610d1c5780601f10610cf157610100808354040283529160200191610d1c565b820191906000526020600020905b815481529060010190602001808311610cff57829003601f168201915b505050505090506000610d2d611894565b90506000815103610d42578192505050610d85565b600082511115610d77578082604051602001610d5f929190612b24565b60405160208183030381529060405292505050610d85565b610d80846118ab565b925050505b919050565b60326008541115610d9a57600080fd5b6000610da66007611913565b90506000610db3826106ec565b90506000610dc083610a14565b90506000610dcd84610b80565b90506000838383604051602001610de693929190612b48565b60405160208183030381529060405290506000600982604051602001610e0d929190612c5d565b60405160208183030381529060405290506000610e5283610e2d84611921565b604051602001610e3e929190612de2565b604051602081830303815290604052611921565b9050600081604051602001610e679190612e73565b6040516020818303038152906040529050610eb66040518060400160405280601581526020017f0a2d2d2d2d2d2d2d2d2d2d2d2d2d2d2d2d2d2d2d2d000000000000000000000081525061102f565b610ebf8161102f565b610efd6040518060400160405280601581526020017f2d2d2d2d2d2d2d2d2d2d2d2d2d2d2d2d2d2d2d2d0a000000000000000000000081525061102f565b610f073389611a84565b610f118882611aa2565b610f1b6007611b0f565b610f3e60405180606001604052806025815260200161373e602591398933611b25565b600160086000828254610f519190612ec4565b925050819055507febb98688741ffa4c7589bf325de30cf7becb63de567842e1ccdb6cb949fdc82c3389604051610f89929190612ef8565b60405180910390a15050505050505050565b6000600560008473ffffffffffffffffffffffffffffffffffffffff1673ffffffffffffffffffffffffffffffffffffffff16815260200190815260200160002060008373ffffffffffffffffffffffffffffffffffffffff1673ffffffffffffffffffffffffffffffffffffffff16815260200190815260200160002060009054906101000a900460ff16905092915050565b6110c58160405160240161104391906121a0565b6040516020818303038152906040527f41304fac000000000000000000000000000000000000000000000000000000007bffffffffffffffffffffffffffffffffffffffffffffffffffffffff19166020820180517bffffffffffffffffffffffffffffffffffffffffffffffffffffffff8381831617835250505050611bc4565b50565b60007f01ffc9a7000000000000000000000000000000000000000000000000000000007bffffffffffffffffffffffffffffffffffffffffffffffffffffffff1916827bffffffffffffffffffffffffffffffffffffffffffffffffffffffff1916149050919050565b61113b81611bed565b61117a576040517f08c379a000000000000000000000000000000000000000000000000000000000815260040161117190612996565b60405180910390fd5b50565b600033905090565b816004600083815260200190815260200160002060006101000a81548173ffffffffffffffffffffffffffffffffffffffff021916908373ffffffffffffffffffffffffffffffffffffffff160217905550808273ffffffffffffffffffffffffffffffffffffffff166111f883610804565b73ffffffffffffffffffffffffffffffffffffffff167f8c5be1e5ebec7d5bd14f71427d1e84f3dd0314c0f7b2291e5b200ac8c7c3b92560405160405180910390a45050565b60008061124a83610804565b90508073ffffffffffffffffffffffffffffffffffffffff168473ffffffffffffffffffffffffffffffffffffffff16148061128c575061128b8185610f9b565b5b806112ca57508373ffffffffffffffffffffffffffffffffffffffff166112b28461052f565b73ffffffffffffffffffffffffffffffffffffffff16145b91505092915050565b8273ffffffffffffffffffffffffffffffffffffffff166112f382610804565b73ffffffffffffffffffffffffffffffffffffffff1614611349576040517f08c379a000000000000000000000000000000000000000000000000000000000815260040161134090612f93565b60405180910390fd5b600073ffffffffffffffffffffffffffffffffffffffff168273ffffffffffffffffffffffffffffffffffffffff16036113b8576040517f08c379a00000000000000000000000000000000000000000000000000000000081526004016113af90613025565b60405180910390fd5b6113c3838383611c59565b6113ce600082611185565b6001600360008573ffffffffffffffffffffffffffffffffffffffff1673ffffffffffffffffffffffffffffffffffffffff168152602001908152602001600020600082825461141e9190613045565b925050819055506001600360008473ffffffffffffffffffffffffffffffffffffffff1673ffffffffffffffffffffffffffffffffffffffff16815260200190815260200160002060008282546114759190612ec4565b92505081905550816002600083815260200190815260200160002060006101000a81548173ffffffffffffffffffffffffffffffffffffffff021916908373ffffffffffffffffffffffffffffffffffffffff160217905550808273ffffffffffffffffffffffffffffffffffffffff168473ffffffffffffffffffffffffffffffffffffffff167fddf252ad1be2c89b69c2b068fc378daa952ba7f163c4a11628f55a4df523b3ef60405160405180910390a4611534838383611c5e565b505050565b606060008203611580576040518060400160405280600181526020017f30000000000000000000000000000000000000000000000000000000000000008152509050611694565b600082905060005b600082146115b257808061159b90613079565b915050600a826115ab91906130c1565b9150611588565b60008167ffffffffffffffff8111156115ce576115cd61240d565b5b6040519080825280601f01601f1916602001820160405280156116005781602001600182028036833780820191505090505b5090505b6000851461168d576001826116199190613045565b9150600a8561162891906128ea565b60306116349190612ec4565b60f81b81838151811061164a5761164961291b565b5b60200101907effffffffffffffffffffffffffffffffffffffffffffffffffffffffffffff1916908160001a905350600a8561168691906130c1565b9450611604565b8093505050505b919050565b6000816040516020016116ac91906130f2565b6040516020818303038152906040528051906020012060001c9050919050565b8173ffffffffffffffffffffffffffffffffffffffff168373ffffffffffffffffffffffffffffffffffffffff160361173a576040517f08c379a000000000000000000000000000000000000000000000000000000000815260040161173190613155565b60405180910390fd5b80600560008573ffffffffffffffffffffffffffffffffffffffff1673ffffffffffffffffffffffffffffffffffffffff16815260200190815260200160002060008473ffffffffffffffffffffffffffffffffffffffff1673ffffffffffffffffffffffffffffffffffffffff16815260200190815260200160002060006101000a81548160ff0219169083151502179055508173ffffffffffffffffffffffffffffffffffffffff168373ffffffffffffffffffffffffffffffffffffffff167f17307eab39ab6107e8899845ad3d59bd9653f200f220920489ca2b5937696c318360405161182b91906120f5565b60405180910390a3505050565b6118438484846112d3565b61184f84848484611c63565b61188e576040517f08c379a0000000000000000000000000000000000000000000000000000000008152600401611885906131e7565b60405180910390fd5b50505050565b606060405180602001604052806000815250905090565b60606118b682611132565b60006118c0611894565b905060008151116118e0576040518060200160405280600081525061190b565b806118ea84611539565b6040516020016118fb929190612b24565b6040516020818303038152906040525b915050919050565b600081600001549050919050565b6060600082510361194357604051806020016040528060008152509050611a7f565b600060405180606001604052806040815260200161376360409139905060006003600285516119729190612ec4565b61197c91906130c1565b60046119889190613207565b67ffffffffffffffff8111156119a1576119a061240d565b5b6040519080825280601f01601f1916602001820160405280156119d35781602001600182028036833780820191505090505b509050600182016020820185865187015b80821015611a3f576003820191508151603f8160121c168501518453600184019350603f81600c1c168501518453600184019350603f8160061c168501518453600184019350603f81168501518453600184019350506119e4565b5050600386510660018114611a5b5760028114611a6e57611a76565b603d6001830353603d6002830353611a76565b603d60018303535b50505080925050505b919050565b611a9e828260405180602001604052806000815250611dea565b5050565b611aab82611bed565b611aea576040517f08c379a0000000000000000000000000000000000000000000000000000000008152600401611ae1906132bb565b60405180910390fd5b80600660008481526020019081526020016000209081611b0a9190613472565b505050565b6001816000016000828254019250508190555050565b611bbf838383604051602401611b3d93929190613544565b6040516020818303038152906040527f1c7ec448000000000000000000000000000000000000000000000000000000007bffffffffffffffffffffffffffffffffffffffffffffffffffffffff19166020820180517bffffffffffffffffffffffffffffffffffffffffffffffffffffffff8381831617835250505050611bc4565b505050565b60008151905060006a636f6e736f6c652e6c6f679050602083016000808483855afa5050505050565b60008073ffffffffffffffffffffffffffffffffffffffff166002600084815260200190815260200160002060009054906101000a900473ffffffffffffffffffffffffffffffffffffffff1673ffffffffffffffffffffffffffffffffffffffff1614159050919050565b505050565b505050565b6000611c848473ffffffffffffffffffffffffffffffffffffffff16611e45565b15611ddd578373ffffffffffffffffffffffffffffffffffffffff1663150b7a02611cad61117d565b8786866040518563ffffffff1660e01b8152600401611ccf94939291906135d7565b6020604051808303816000875af1925050508015611d0b57506040513d601f19601f82011682018060405250810190611d089190613638565b60015b611d8d573d8060008114611d3b576040519150601f19603f3d011682016040523d82523d6000602084013e611d40565b606091505b506000815103611d85576040517f08c379a0000000000000000000000000000000000000000000000000000000008152600401611d7c906131e7565b60405180910390fd5b805181602001fd5b63150b7a0260e01b7bffffffffffffffffffffffffffffffffffffffffffffffffffffffff1916817bffffffffffffffffffffffffffffffffffffffffffffffffffffffff191614915050611de2565b600190505b949350505050565b611df48383611e68565b611e016000848484611c63565b611e40576040517f08c379a0000000000000000000000000000000000000000000000000000000008152600401611e37906131e7565b60405180910390fd5b505050565b6000808273ffffffffffffffffffffffffffffffffffffffff163b119050919050565b600073ffffffffffffffffffffffffffffffffffffffff168273ffffffffffffffffffffffffffffffffffffffff1603611ed7576040517f08c379a0000000000000000000000000000000000000000000000000000000008152600401611ece906136b1565b60405180910390fd5b611ee081611bed565b15611f20576040517f08c379a0000000000000000000000000000000000000000000000000000000008152600401611f179061371d565b60405180910390fd5b611f2c60008383611c59565b6001600360008473ffffffffffffffffffffffffffffffffffffffff1673ffffffffffffffffffffffffffffffffffffffff1681526020019081526020016000206000828254611f7c9190612ec4565b92505081905550816002600083815260200190815260200160002060006101000a81548173ffffffffffffffffffffffffffffffffffffffff021916908373ffffffffffffffffffffffffffffffffffffffff160217905550808273ffffffffffffffffffffffffffffffffffffffff16600073ffffffffffffffffffffffffffffffffffffffff167fddf252ad1be2c89b69c2b068fc378daa952ba7f163c4a11628f55a4df523b3ef60405160405180910390a461203d60008383611c5e565b5050565b6000604051905090565b600080fd5b600080fd5b60007fffffffff0000000000000000000000000000000000000000000000000000000082169050919050565b61208a81612055565b811461209557600080fd5b50565b6000813590506120a781612081565b92915050565b6000602082840312156120c3576120c261204b565b5b60006120d184828501612098565b91505092915050565b60008115159050919050565b6120ef816120da565b82525050565b600060208201905061210a60008301846120e6565b92915050565b600081519050919050565b600082825260208201905092915050565b60005b8381101561214a57808201518184015260208101905061212f565b60008484015250505050565b6000601f19601f8301169050919050565b600061217282612110565b61217c818561211b565b935061218c81856020860161212c565b61219581612156565b840191505092915050565b600060208201905081810360008301526121ba8184612167565b905092915050565b6000819050919050565b6121d5816121c2565b81146121e057600080fd5b50565b6000813590506121f2816121cc565b92915050565b60006020828403121561220e5761220d61204b565b5b600061221c848285016121e3565b91505092915050565b600073ffffffffffffffffffffffffffffffffffffffff82169050919050565b600061225082612225565b9050919050565b61226081612245565b82525050565b600060208201905061227b6000830184612257565b92915050565b61228a81612245565b811461229557600080fd5b50565b6000813590506122a781612281565b92915050565b600080604083850312156122c4576122c361204b565b5b60006122d285828601612298565b92505060206122e3858286016121e3565b9150509250929050565b6000806000606084860312156123065761230561204b565b5b600061231486828701612298565b935050602061232586828701612298565b9250506040612336868287016121e3565b9150509250925092565b6000602082840312156123565761235561204b565b5b600061236484828501612298565b91505092915050565b612376816121c2565b82525050565b6000602082019050612391600083018461236d565b92915050565b6123a0816120da565b81146123ab57600080fd5b50565b6000813590506123bd81612397565b92915050565b600080604083850312156123da576123d961204b565b5b60006123e885828601612298565b92505060206123f9858286016123ae565b9150509250929050565b600080fd5b600080fd5b7f4e487b7100000000000000000000000000000000000000000000000000000000600052604160045260246000fd5b61244582612156565b810181811067ffffffffffffffff821117156124645761246361240d565b5b80604052505050565b6000612477612041565b9050612483828261243c565b919050565b600067ffffffffffffffff8211156124a3576124a261240d565b5b6124ac82612156565b9050602081019050919050565b82818337600083830152505050565b60006124db6124d684612488565b61246d565b9050828152602081018484840111156124f7576124f6612408565b5b6125028482856124b9565b509392505050565b600082601f83011261251f5761251e612403565b5b813561252f8482602086016124c8565b91505092915050565b600080600080608085870312156125525761255161204b565b5b600061256087828801612298565b945050602061257187828801612298565b9350506040612582878288016121e3565b925050606085013567ffffffffffffffff8111156125a3576125a2612050565b5b6125af8782880161250a565b91505092959194509250565b600080604083850312156125d2576125d161204b565b5b60006125e085828601612298565b92505060206125f185828601612298565b9150509250929050565b7f4e487b7100000000000000000000000000000000000000000000000000000000600052602260045260246000fd5b6000600282049050600182168061264257607f821691505b602082108103612655576126546125fb565b5b50919050565b7f4552433732313a20617070726f76616c20746f2063757272656e74206f776e6560008201527f7200000000000000000000000000000000000000000000000000000000000000602082015250565b60006126b760218361211b565b91506126c28261265b565b604082019050919050565b600060208201905081810360008301526126e6816126aa565b9050919050565b7f4552433732313a20617070726f76652063616c6c6572206973206e6f7420746f60008201527f6b656e206f776e6572206e6f7220617070726f76656420666f7220616c6c0000602082015250565b6000612749603e8361211b565b9150612754826126ed565b604082019050919050565b600060208201905081810360008301526127788161273c565b9050919050565b7f4552433732313a2063616c6c6572206973206e6f7420746f6b656e206f776e6560008201527f72206e6f7220617070726f766564000000000000000000000000000000000000602082015250565b60006127db602e8361211b565b91506127e68261277f565b604082019050919050565b6000602082019050818103600083015261280a816127ce565b9050919050565b600081905092915050565b7f46495253545f574f524400000000000000000000000000000000000000000000600082015250565b6000612852600a83612811565b915061285d8261281c565b600a82019050919050565b600061287382612110565b61287d8185612811565b935061288d81856020860161212c565b80840191505092915050565b60006128a482612845565b91506128b08284612868565b915081905092915050565b7f4e487b7100000000000000000000000000000000000000000000000000000000600052601260045260246000fd5b60006128f5826121c2565b9150612900836121c2565b9250826129105761290f6128bb565b5b828206905092915050565b7f4e487b7100000000000000000000000000000000000000000000000000000000600052603260045260246000fd5b7f4552433732313a20696e76616c696420746f6b656e2049440000000000000000600082015250565b600061298060188361211b565b915061298b8261294a565b602082019050919050565b600060208201905081810360008301526129af81612973565b9050919050565b7f4552433732313a2061646472657373207a65726f206973206e6f74206120766160008201527f6c6964206f776e65720000000000000000000000000000000000000000000000602082015250565b6000612a1260298361211b565b9150612a1d826129b6565b604082019050919050565b60006020820190508181036000830152612a4181612a05565b9050919050565b7f5345434f4e445f574f5244000000000000000000000000000000000000000000600082015250565b6000612a7e600b83612811565b9150612a8982612a48565b600b82019050919050565b6000612a9f82612a71565b9150612aab8284612868565b915081905092915050565b7f54484952445f574f524400000000000000000000000000000000000000000000600082015250565b6000612aec600a83612811565b9150612af782612ab6565b600a82019050919050565b6000612b0d82612adf565b9150612b198284612868565b915081905092915050565b6000612b308285612868565b9150612b3c8284612868565b91508190509392505050565b6000612b548286612868565b9150612b608285612868565b9150612b6c8284612868565b9150819050949350505050565b60008190508160005260206000209050919050565b60008154612b9b8161262a565b612ba58186612811565b94506001821660008114612bc05760018114612bd557612c08565b60ff1983168652811515820286019350612c08565b612bde85612b79565b60005b83811015612c0057815481890152600182019150602081019050612be1565b838801955050505b50505092915050565b7f3c2f746578743e3c2f7376673e00000000000000000000000000000000000000600082015250565b6000612c47600d83612811565b9150612c5282612c11565b600d82019050919050565b6000612c698285612b8e565b9150612c758284612868565b9150612c8082612c3a565b91508190509392505050565b7f7b226e616d65223a202200000000000000000000000000000000000000000000600082015250565b6000612cc2600a83612811565b9150612ccd82612c8c565b600a82019050919050565b7f222c20226465736372697074696f6e223a20224120686967686c79206163636c60008201527f61696d656420636f6c6c656374696f6e206f6620737175617265732e222c202260208201527f696d616765223a2022646174613a696d6167652f7376672b786d6c3b6261736560408201527f36342c0000000000000000000000000000000000000000000000000000000000606082015250565b6000612d80606383612811565b9150612d8b82612cd8565b606382019050919050565b7f227d000000000000000000000000000000000000000000000000000000000000600082015250565b6000612dcc600283612811565b9150612dd782612d96565b600282019050919050565b6000612ded82612cb5565b9150612df98285612868565b9150612e0482612d73565b9150612e108284612868565b9150612e1b82612dbf565b91508190509392505050565b7f646174613a6170706c69636174696f6e2f6a736f6e3b6261736536342c000000600082015250565b6000612e5d601d83612811565b9150612e6882612e27565b601d82019050919050565b6000612e7e82612e50565b9150612e8a8284612868565b915081905092915050565b7f4e487b7100000000000000000000000000000000000000000000000000000000600052601160045260246000fd5b6000612ecf826121c2565b9150612eda836121c2565b9250828201905080821115612ef257612ef1612e95565b5b92915050565b6000604082019050612f0d6000830185612257565b612f1a602083018461236d565b9392505050565b7f4552433732313a207472616e736665722066726f6d20696e636f72726563742060008201527f6f776e6572000000000000000000000000000000000000000000000000000000602082015250565b6000612f7d60258361211b565b9150612f8882612f21565b604082019050919050565b60006020820190508181036000830152612fac81612f70565b9050919050565b7f4552433732313a207472616e7366657220746f20746865207a65726f2061646460008201527f7265737300000000000000000000000000000000000000000000000000000000602082015250565b600061300f60248361211b565b915061301a82612fb3565b604082019050919050565b6000602082019050818103600083015261303e81613002565b9050919050565b6000613050826121c2565b915061305b836121c2565b925082820390508181111561307357613072612e95565b5b92915050565b6000613084826121c2565b91507fffffffffffffffffffffffffffffffffffffffffffffffffffffffffffffffff82036130b6576130b5612e95565b5b600182019050919050565b60006130cc826121c2565b91506130d7836121c2565b9250826130e7576130e66128bb565b5b828204905092915050565b60006130fe8284612868565b915081905092915050565b7f4552433732313a20617070726f766520746f2063616c6c657200000000000000600082015250565b600061313f60198361211b565b915061314a82613109565b602082019050919050565b6000602082019050818103600083015261316e81613132565b9050919050565b7f4552433732313a207472616e7366657220746f206e6f6e20455243373231526560008201527f63656976657220696d706c656d656e7465720000000000000000000000000000602082015250565b60006131d160328361211b565b91506131dc82613175565b604082019050919050565b60006020820190508181036000830152613200816131c4565b9050919050565b6000613212826121c2565b915061321d836121c2565b925082820261322b816121c2565b9150828204841483151761324257613241612e95565b5b5092915050565b7f45524337323155524953746f726167653a2055524920736574206f66206e6f6e60008201527f6578697374656e7420746f6b656e000000000000000000000000000000000000602082015250565b60006132a5602e8361211b565b91506132b082613249565b604082019050919050565b600060208201905081810360008301526132d481613298565b9050919050565b60006020601f8301049050919050565b600082821b905092915050565b6000600883026133287fffffffffffffffffffffffffffffffffffffffffffffffffffffffffffffffff826132eb565b61333286836132eb565b95508019841693508086168417925050509392505050565b6000819050919050565b600061336f61336a613365846121c2565b61334a565b6121c2565b9050919050565b6000819050919050565b61338983613354565b61339d61339582613376565b8484546132f8565b825550505050565b600090565b6133b26133a5565b6133bd818484613380565b505050565b5b818110156133e1576133d66000826133aa565b6001810190506133c3565b5050565b601f821115613426576133f781612b79565b613400846132db565b8101602085101561340f578190505b61342361341b856132db565b8301826133c2565b50505b505050565b600082821c905092915050565b60006134496000198460080261342b565b1980831691505092915050565b60006134628383613438565b9150826002028217905092915050565b61347b82612110565b67ffffffffffffffff8111156134945761349361240d565b5b61349e825461262a565b6134a98282856133e5565b600060209050601f8311600181146134dc57600084156134ca578287015190505b6134d48582613456565b86555061353c565b601f1984166134ea86612b79565b60005b82811015613512578489015182556001820191506020850194506020810190506134ed565b8683101561352f578489015161352b601f891682613438565b8355505b6001600288020188555050505b505050505050565b6000606082019050818103600083015261355e8186612167565b905061356d602083018561236d565b61357a6040830184612257565b949350505050565b600081519050919050565b600082825260208201905092915050565b60006135a982613582565b6135b3818561358d565b93506135c381856020860161212c565b6135cc81612156565b840191505092915050565b60006080820190506135ec6000830187612257565b6135f96020830186612257565b613606604083018561236d565b8181036060830152613618818461359e565b905095945050505050565b60008151905061363281612081565b92915050565b60006020828403121561364e5761364d61204b565b5b600061365c84828501613623565b91505092915050565b7f4552433732313a206d696e7420746f20746865207a65726f2061646472657373600082015250565b600061369b60208361211b565b91506136a682613665565b602082019050919050565b600060208201905081810360008301526136ca8161368e565b9050919050565b7f4552433732313a20746f6b656e20616c7265616479206d696e74656400000000600082015250565b6000613707601c8361211b565b9150613712826136d1565b602082019050919050565b60006020820190508181036000830152613736816136fa565b905091905056fe416e204e465420772f20494420257320686173206265656e206d696e74656420746f2025734142434445464748494a4b4c4d4e4f505152535455565758595a6162636465666768696a6b6c6d6e6f707172737475767778797a303132333435363738392b2fa26469706673582212200f4c1581237e22e5695b479911ac64fe00c32338ae14342a74ca210dda99787864736f6c634300081100333c73766720786d6c6e733d27687474703a2f2f7777772e77332e6f72672f323030302f73766727207072657365727665417370656374526174696f3d27784d696e594d696e206d656574272076696577426f783d273020302033353020333530273e3c7374796c653e2e62617365207b2066696c6c3a2077686974653b20666f6e742d66616d696c793a2073657269663b20666f6e742d73697a653a20323470783b207d3c2f7374796c653e3c726563742077696474683d273130302527206865696768743d2731303025272066696c6c3d27626c61636b27202f3e3c7465787420783d273530252720793d273530252720636c6173733d27626173652720646f6d696e616e742d626173656c696e653d276d6964646c652720746578742d616e63686f723d276d6964646c65273e",
  "linkReferences": {},
  "deployedLinkReferences": {}
}